{
  "_format": "hh-sol-artifact-1",
  "contractName": "ZadToken",
  "sourceName": "Contracts/ZadToken.sol",
  "abi": [
    {
      "inputs": [],
      "stateMutability": "nonpayable",
      "type": "constructor"
    },
    {
      "anonymous": false,
      "inputs": [
        {
          "indexed": true,
          "internalType": "address",
          "name": "owner",
          "type": "address"
        },
        {
          "indexed": true,
          "internalType": "address",
          "name": "approved",
          "type": "address"
        },
        {
          "indexed": true,
          "internalType": "uint256",
          "name": "tokenId",
          "type": "uint256"
        }
      ],
      "name": "Approval",
      "type": "event"
    },
    {
      "anonymous": false,
      "inputs": [
        {
          "indexed": true,
          "internalType": "address",
          "name": "owner",
          "type": "address"
        },
        {
          "indexed": true,
          "internalType": "address",
          "name": "operator",
          "type": "address"
        },
        {
          "indexed": false,
          "internalType": "bool",
          "name": "approved",
          "type": "bool"
        }
      ],
      "name": "ApprovalForAll",
      "type": "event"
    },
    {
      "anonymous": false,
      "inputs": [
        {
          "indexed": true,
          "internalType": "address",
          "name": "previousOwner",
          "type": "address"
        },
        {
          "indexed": true,
          "internalType": "address",
          "name": "newOwner",
          "type": "address"
        }
      ],
      "name": "OwnershipTransferred",
      "type": "event"
    },
    {
      "anonymous": false,
      "inputs": [
        {
          "indexed": true,
          "internalType": "address",
          "name": "from",
          "type": "address"
        },
        {
          "indexed": true,
          "internalType": "address",
          "name": "to",
          "type": "address"
        },
        {
          "indexed": true,
          "internalType": "uint256",
          "name": "tokenId",
          "type": "uint256"
        }
      ],
      "name": "Transfer",
      "type": "event"
    },
    {
      "inputs": [
        {
          "internalType": "address",
          "name": "to",
          "type": "address"
        },
        {
          "internalType": "uint256",
          "name": "tokenId",
          "type": "uint256"
        }
      ],
      "name": "approve",
      "outputs": [],
      "stateMutability": "nonpayable",
      "type": "function"
    },
    {
      "inputs": [
        {
          "internalType": "address",
          "name": "owner",
          "type": "address"
        }
      ],
      "name": "balanceOf",
      "outputs": [
        {
          "internalType": "uint256",
          "name": "",
          "type": "uint256"
        }
      ],
      "stateMutability": "view",
      "type": "function"
    },
    {
      "inputs": [
        {
          "internalType": "uint256",
          "name": "tokenID",
          "type": "uint256"
        }
      ],
      "name": "burn",
      "outputs": [],
      "stateMutability": "nonpayable",
      "type": "function"
    },
    {
      "inputs": [
        {
          "internalType": "uint256",
          "name": "tokenId",
          "type": "uint256"
        }
      ],
      "name": "getApproved",
      "outputs": [
        {
          "internalType": "address",
          "name": "",
          "type": "address"
        }
      ],
      "stateMutability": "view",
      "type": "function"
    },
    {
      "inputs": [
        {
          "internalType": "address",
          "name": "owner",
          "type": "address"
        },
        {
          "internalType": "address",
          "name": "operator",
          "type": "address"
        }
      ],
      "name": "isApprovedForAll",
      "outputs": [
        {
          "internalType": "bool",
          "name": "",
          "type": "bool"
        }
      ],
      "stateMutability": "view",
      "type": "function"
    },
    {
      "inputs": [
        {
          "internalType": "address",
          "name": "to",
          "type": "address"
        },
        {
          "internalType": "string",
          "name": "uri",
          "type": "string"
        },
        {
          "internalType": "uint256",
          "name": "baggageValue",
          "type": "uint256"
        }
      ],
      "name": "mintToken",
      "outputs": [
        {
          "internalType": "uint256",
          "name": "",
          "type": "uint256"
        }
      ],
      "stateMutability": "payable",
      "type": "function"
    },
    {
      "inputs": [],
      "name": "name",
      "outputs": [
        {
          "internalType": "string",
          "name": "",
          "type": "string"
        }
      ],
      "stateMutability": "view",
      "type": "function"
    },
    {
      "inputs": [],
      "name": "owner",
      "outputs": [
        {
          "internalType": "address",
          "name": "",
          "type": "address"
        }
      ],
      "stateMutability": "view",
      "type": "function"
    },
    {
      "inputs": [
        {
          "internalType": "uint256",
          "name": "tokenId",
          "type": "uint256"
        }
      ],
      "name": "ownerOf",
      "outputs": [
        {
          "internalType": "address",
          "name": "",
          "type": "address"
        }
      ],
      "stateMutability": "view",
      "type": "function"
    },
    {
      "inputs": [],
      "name": "renounceOwnership",
      "outputs": [],
      "stateMutability": "nonpayable",
      "type": "function"
    },
    {
      "inputs": [
        {
          "internalType": "address",
          "name": "from",
          "type": "address"
        },
        {
          "internalType": "address",
          "name": "to",
          "type": "address"
        },
        {
          "internalType": "uint256",
          "name": "tokenId",
          "type": "uint256"
        }
      ],
      "name": "safeTransferFrom",
      "outputs": [],
      "stateMutability": "nonpayable",
      "type": "function"
    },
    {
      "inputs": [
        {
          "internalType": "address",
          "name": "from",
          "type": "address"
        },
        {
          "internalType": "address",
          "name": "to",
          "type": "address"
        },
        {
          "internalType": "uint256",
          "name": "tokenId",
          "type": "uint256"
        },
        {
          "internalType": "bytes",
          "name": "_data",
          "type": "bytes"
        }
      ],
      "name": "safeTransferFrom",
      "outputs": [],
      "stateMutability": "nonpayable",
      "type": "function"
    },
    {
      "inputs": [
        {
          "internalType": "address",
          "name": "operator",
          "type": "address"
        },
        {
          "internalType": "bool",
          "name": "approved",
          "type": "bool"
        }
      ],
      "name": "setApprovalForAll",
      "outputs": [],
      "stateMutability": "nonpayable",
      "type": "function"
    },
    {
      "inputs": [
        {
          "internalType": "bytes4",
          "name": "interfaceId",
          "type": "bytes4"
        }
      ],
      "name": "supportsInterface",
      "outputs": [
        {
          "internalType": "bool",
          "name": "",
          "type": "bool"
        }
      ],
      "stateMutability": "view",
      "type": "function"
    },
    {
      "inputs": [],
      "name": "symbol",
      "outputs": [
        {
          "internalType": "string",
          "name": "",
          "type": "string"
        }
      ],
      "stateMutability": "view",
      "type": "function"
    },
    {
      "inputs": [
        {
          "internalType": "uint256",
          "name": "index",
          "type": "uint256"
        }
      ],
      "name": "tokenByIndex",
      "outputs": [
        {
          "internalType": "uint256",
          "name": "",
          "type": "uint256"
        }
      ],
      "stateMutability": "view",
      "type": "function"
    },
    {
      "inputs": [
        {
          "internalType": "address",
          "name": "owner",
          "type": "address"
        },
        {
          "internalType": "uint256",
          "name": "index",
          "type": "uint256"
        }
      ],
      "name": "tokenOfOwnerByIndex",
      "outputs": [
        {
          "internalType": "uint256",
          "name": "",
          "type": "uint256"
        }
      ],
      "stateMutability": "view",
      "type": "function"
    },
    {
      "inputs": [
        {
          "internalType": "uint256",
          "name": "tokenID",
          "type": "uint256"
        }
      ],
      "name": "tokenURI",
      "outputs": [
        {
          "internalType": "string",
          "name": "",
          "type": "string"
        }
      ],
      "stateMutability": "view",
      "type": "function"
    },
    {
      "inputs": [],
      "name": "totalSupply",
      "outputs": [
        {
          "internalType": "uint256",
          "name": "",
          "type": "uint256"
        }
      ],
      "stateMutability": "view",
      "type": "function"
    },
    {
      "inputs": [
        {
          "internalType": "address",
          "name": "from",
          "type": "address"
        },
        {
          "internalType": "address",
          "name": "to",
          "type": "address"
        },
        {
          "internalType": "uint256",
          "name": "tokenId",
          "type": "uint256"
        }
      ],
      "name": "transferFrom",
      "outputs": [],
      "stateMutability": "nonpayable",
      "type": "function"
    },
    {
      "inputs": [
        {
          "internalType": "address",
          "name": "newOwner",
          "type": "address"
        }
      ],
      "name": "transferOwnership",
      "outputs": [],
      "stateMutability": "nonpayable",
      "type": "function"
    }
  ],
  "bytecode": "0x60806040523480156200001157600080fd5b506040518060400160405280600881526020017f5a6164546f6b656e0000000000000000000000000000000000000000000000008152506040518060400160405280600381526020017f5a41440000000000000000000000000000000000000000000000000000000000815250816000908051906020019062000096929190620001a6565b508060019080519060200190620000af929190620001a6565b505050620000d2620000c6620000d860201b60201c565b620000e060201b60201c565b620002bb565b600033905090565b6000600b60009054906101000a900473ffffffffffffffffffffffffffffffffffffffff16905081600b60006101000a81548173ffffffffffffffffffffffffffffffffffffffff021916908373ffffffffffffffffffffffffffffffffffffffff1602179055508173ffffffffffffffffffffffffffffffffffffffff168173ffffffffffffffffffffffffffffffffffffffff167f8be0079c531659141344cd1fd0a4f28419497f9722a3daafe3b4186f6b6457e060405160405180910390a35050565b828054620001b49062000256565b90600052602060002090601f016020900481019282620001d8576000855562000224565b82601f10620001f357805160ff191683800117855562000224565b8280016001018555821562000224579182015b828111156200022357825182559160200191906001019062000206565b5b50905062000233919062000237565b5090565b5b808211156200025257600081600090555060010162000238565b5090565b600060028204905060018216806200026f57607f821691505b602082108114156200028657620002856200028c565b5b50919050565b7f4e487b7100000000000000000000000000000000000000000000000000000000600052602260045260246000fd5b613c8c80620002cb6000396000f3fe60806040526004361061012a5760003560e01c8063611b2fed116100ab57806395d89b411161006f57806395d89b4114610409578063a22cb46514610434578063b88d4fde1461045d578063c87b56dd14610486578063e985e9c5146104c3578063f2fde38b146105005761012a565b8063611b2fed1461031d5780636352211e1461034d57806370a082311461038a578063715018a6146103c75780638da5cb5b146103de5761012a565b806323b872dd116100f257806323b872dd146102285780632f745c591461025157806342842e0e1461028e57806342966c68146102b75780634f6ccce7146102e05761012a565b806301ffc9a71461012f57806306fdde031461016c578063081812fc14610197578063095ea7b3146101d457806318160ddd146101fd575b600080fd5b34801561013b57600080fd5b5061015660048036038101906101519190612a85565b610529565b6040516101639190612f3a565b60405180910390f35b34801561017857600080fd5b5061018161053b565b60405161018e9190612f55565b60405180910390f35b3480156101a357600080fd5b506101be60048036038101906101b99190612ad7565b6105cd565b6040516101cb9190612ed3565b60405180910390f35b3480156101e057600080fd5b506101fb60048036038101906101f69190612a49565b610652565b005b34801561020957600080fd5b5061021261076a565b60405161021f9190613217565b60405180910390f35b34801561023457600080fd5b5061024f600480360381019061024a91906128dc565b610777565b005b34801561025d57600080fd5b5061027860048036038101906102739190612a49565b6107d7565b6040516102859190613217565b60405180910390f35b34801561029a57600080fd5b506102b560048036038101906102b091906128dc565b61087c565b005b3480156102c357600080fd5b506102de60048036038101906102d99190612ad7565b61089c565b005b3480156102ec57600080fd5b5061030760048036038101906103029190612ad7565b610924565b6040516103149190613217565b60405180910390f35b610337600480360381019061033291906129e2565b6109bb565b6040516103449190613217565b60405180910390f35b34801561035957600080fd5b50610374600480360381019061036f9190612ad7565b610a16565b6040516103819190612ed3565b60405180910390f35b34801561039657600080fd5b506103b160048036038101906103ac9190612877565b610ac8565b6040516103be9190613217565b60405180910390f35b3480156103d357600080fd5b506103dc610b80565b005b3480156103ea57600080fd5b506103f3610c08565b6040516104009190612ed3565b60405180910390f35b34801561041557600080fd5b5061041e610c32565b60405161042b9190612f55565b60405180910390f35b34801561044057600080fd5b5061045b600480360381019061045691906129a6565b610cc4565b005b34801561046957600080fd5b50610484600480360381019061047f919061292b565b610cda565b005b34801561049257600080fd5b506104ad60048036038101906104a89190612ad7565b610d3c565b6040516104ba9190612f55565b60405180910390f35b3480156104cf57600080fd5b506104ea60048036038101906104e591906128a0565b610d4e565b6040516104f79190612f3a565b60405180910390f35b34801561050c57600080fd5b5061052760048036038101906105229190612877565b610de2565b005b600061053482610eda565b9050919050565b60606000805461054a9061346d565b80601f01602080910402602001604051908101604052809291908181526020018280546105769061346d565b80156105c35780601f10610598576101008083540402835291602001916105c3565b820191906000526020600020905b8154815290600101906020018083116105a657829003601f168201915b5050505050905090565b60006105d882610f54565b610617576040517f08c379a000000000000000000000000000000000000000000000000000000000815260040161060e90613137565b60405180910390fd5b6004600083815260200190815260200160002060009054906101000a900473ffffffffffffffffffffffffffffffffffffffff169050919050565b600061065d82610a16565b90508073ffffffffffffffffffffffffffffffffffffffff168373ffffffffffffffffffffffffffffffffffffffff1614156106ce576040517f08c379a00000000000000000000000000000000000000000000000000000000081526004016106c590613197565b60405180910390fd5b8073ffffffffffffffffffffffffffffffffffffffff166106ed610fc0565b73ffffffffffffffffffffffffffffffffffffffff16148061071c575061071b81610716610fc0565b610d4e565b5b61075b576040517f08c379a000000000000000000000000000000000000000000000000000000000815260040161075290613077565b60405180910390fd5b6107658383610fc8565b505050565b6000600880549050905090565b610788610782610fc0565b82611081565b6107c7576040517f08c379a00000000000000000000000000000000000000000000000000000000081526004016107be906131b7565b60405180910390fd5b6107d283838361115f565b505050565b60006107e283610ac8565b8210610823576040517f08c379a000000000000000000000000000000000000000000000000000000000815260040161081a90612f77565b60405180910390fd5b600660008473ffffffffffffffffffffffffffffffffffffffff1673ffffffffffffffffffffffffffffffffffffffff168152602001908152602001600020600083815260200190815260200160002054905092915050565b61089783838360405180602001604052806000815250610cda565b505050565b6108a4610fc0565b73ffffffffffffffffffffffffffffffffffffffff166108c2610c08565b73ffffffffffffffffffffffffffffffffffffffff1614610918576040517f08c379a000000000000000000000000000000000000000000000000000000000815260040161090f90613157565b60405180910390fd5b610921816113c6565b50565b600061092e61076a565b821061096f576040517f08c379a0000000000000000000000000000000000000000000000000000000008152600401610966906131d7565b60405180910390fd5b600882815481106109a9577f4e487b7100000000000000000000000000000000000000000000000000000000600052603260045260246000fd5b90600052602060002001549050919050565b600081341015610a00576040517f08c379a00000000000000000000000000000000000000000000000000000000081526004016109f7906131f7565b60405180910390fd5b610a0a84846113d2565b600d5490509392505050565b6000806002600084815260200190815260200160002060009054906101000a900473ffffffffffffffffffffffffffffffffffffffff169050600073ffffffffffffffffffffffffffffffffffffffff168173ffffffffffffffffffffffffffffffffffffffff161415610abf576040517f08c379a0000000000000000000000000000000000000000000000000000000008152600401610ab6906130b7565b60405180910390fd5b80915050919050565b60008073ffffffffffffffffffffffffffffffffffffffff168273ffffffffffffffffffffffffffffffffffffffff161415610b39576040517f08c379a0000000000000000000000000000000000000000000000000000000008152600401610b3090613097565b60405180910390fd5b600360008373ffffffffffffffffffffffffffffffffffffffff1673ffffffffffffffffffffffffffffffffffffffff168152602001908152602001600020549050919050565b610b88610fc0565b73ffffffffffffffffffffffffffffffffffffffff16610ba6610c08565b73ffffffffffffffffffffffffffffffffffffffff1614610bfc576040517f08c379a0000000000000000000000000000000000000000000000000000000008152600401610bf390613157565b60405180910390fd5b610c066000611408565b565b6000600b60009054906101000a900473ffffffffffffffffffffffffffffffffffffffff16905090565b606060018054610c419061346d565b80601f0160208091040260200160405190810160405280929190818152602001828054610c6d9061346d565b8015610cba5780601f10610c8f57610100808354040283529160200191610cba565b820191906000526020600020905b815481529060010190602001808311610c9d57829003601f168201915b5050505050905090565b610cd6610ccf610fc0565b83836114ce565b5050565b610ceb610ce5610fc0565b83611081565b610d2a576040517f08c379a0000000000000000000000000000000000000000000000000000000008152600401610d21906131b7565b60405180910390fd5b610d368484848461163b565b50505050565b6060610d4782611697565b9050919050565b6000600560008473ffffffffffffffffffffffffffffffffffffffff1673ffffffffffffffffffffffffffffffffffffffff16815260200190815260200160002060008373ffffffffffffffffffffffffffffffffffffffff1673ffffffffffffffffffffffffffffffffffffffff16815260200190815260200160002060009054906101000a900460ff16905092915050565b610dea610fc0565b73ffffffffffffffffffffffffffffffffffffffff16610e08610c08565b73ffffffffffffffffffffffffffffffffffffffff1614610e5e576040517f08c379a0000000000000000000000000000000000000000000000000000000008152600401610e5590613157565b60405180910390fd5b600073ffffffffffffffffffffffffffffffffffffffff168173ffffffffffffffffffffffffffffffffffffffff161415610ece576040517f08c379a0000000000000000000000000000000000000000000000000000000008152600401610ec590612fb7565b60405180910390fd5b610ed781611408565b50565b60007f780e9d63000000000000000000000000000000000000000000000000000000007bffffffffffffffffffffffffffffffffffffffffffffffffffffffff1916827bffffffffffffffffffffffffffffffffffffffffffffffffffffffff19161480610f4d5750610f4c826117e9565b5b9050919050565b60008073ffffffffffffffffffffffffffffffffffffffff166002600084815260200190815260200160002060009054906101000a900473ffffffffffffffffffffffffffffffffffffffff1673ffffffffffffffffffffffffffffffffffffffff1614159050919050565b600033905090565b816004600083815260200190815260200160002060006101000a81548173ffffffffffffffffffffffffffffffffffffffff021916908373ffffffffffffffffffffffffffffffffffffffff160217905550808273ffffffffffffffffffffffffffffffffffffffff1661103b83610a16565b73ffffffffffffffffffffffffffffffffffffffff167f8c5be1e5ebec7d5bd14f71427d1e84f3dd0314c0f7b2291e5b200ac8c7c3b92560405160405180910390a45050565b600061108c82610f54565b6110cb576040517f08c379a00000000000000000000000000000000000000000000000000000000081526004016110c290613057565b60405180910390fd5b60006110d683610a16565b90508073ffffffffffffffffffffffffffffffffffffffff168473ffffffffffffffffffffffffffffffffffffffff16148061111857506111178185610d4e565b5b8061115657508373ffffffffffffffffffffffffffffffffffffffff1661113e846105cd565b73ffffffffffffffffffffffffffffffffffffffff16145b91505092915050565b8273ffffffffffffffffffffffffffffffffffffffff1661117f82610a16565b73ffffffffffffffffffffffffffffffffffffffff16146111d5576040517f08c379a00000000000000000000000000000000000000000000000000000000081526004016111cc90612fd7565b60405180910390fd5b600073ffffffffffffffffffffffffffffffffffffffff168273ffffffffffffffffffffffffffffffffffffffff161415611245576040517f08c379a000000000000000000000000000000000000000000000000000000000815260040161123c90613017565b60405180910390fd5b6112508383836118cb565b61125b600082610fc8565b6001600360008573ffffffffffffffffffffffffffffffffffffffff1673ffffffffffffffffffffffffffffffffffffffff16815260200190815260200160002060008282546112ab9190613383565b925050819055506001600360008473ffffffffffffffffffffffffffffffffffffffff1673ffffffffffffffffffffffffffffffffffffffff168152602001908152602001600020600082825461130291906132fc565b92505081905550816002600083815260200190815260200160002060006101000a81548173ffffffffffffffffffffffffffffffffffffffff021916908373ffffffffffffffffffffffffffffffffffffffff160217905550808273ffffffffffffffffffffffffffffffffffffffff168473ffffffffffffffffffffffffffffffffffffffff167fddf252ad1be2c89b69c2b068fc378daa952ba7f163c4a11628f55a4df523b3ef60405160405180910390a46113c18383836118db565b505050565b6113cf816118e0565b50565b6113dc600c611933565b600d819055506113ec600c611941565b6113f882600d54611957565b611404600d5482611975565b5050565b6000600b60009054906101000a900473ffffffffffffffffffffffffffffffffffffffff16905081600b60006101000a81548173ffffffffffffffffffffffffffffffffffffffff021916908373ffffffffffffffffffffffffffffffffffffffff1602179055508173ffffffffffffffffffffffffffffffffffffffff168173ffffffffffffffffffffffffffffffffffffffff167f8be0079c531659141344cd1fd0a4f28419497f9722a3daafe3b4186f6b6457e060405160405180910390a35050565b8173ffffffffffffffffffffffffffffffffffffffff168373ffffffffffffffffffffffffffffffffffffffff16141561153d576040517f08c379a000000000000000000000000000000000000000000000000000000000815260040161153490613037565b60405180910390fd5b80600560008573ffffffffffffffffffffffffffffffffffffffff1673ffffffffffffffffffffffffffffffffffffffff16815260200190815260200160002060008473ffffffffffffffffffffffffffffffffffffffff1673ffffffffffffffffffffffffffffffffffffffff16815260200190815260200160002060006101000a81548160ff0219169083151502179055508173ffffffffffffffffffffffffffffffffffffffff168373ffffffffffffffffffffffffffffffffffffffff167f17307eab39ab6107e8899845ad3d59bd9653f200f220920489ca2b5937696c318360405161162e9190612f3a565b60405180910390a3505050565b61164684848461115f565b611652848484846119e9565b611691576040517f08c379a000000000000000000000000000000000000000000000000000000000815260040161168890612f97565b60405180910390fd5b50505050565b60606116a282610f54565b6116e1576040517f08c379a00000000000000000000000000000000000000000000000000000000081526004016116d890613117565b60405180910390fd5b6000600a600084815260200190815260200160002080546117019061346d565b80601f016020809104026020016040519081016040528092919081815260200182805461172d9061346d565b801561177a5780601f1061174f5761010080835404028352916020019161177a565b820191906000526020600020905b81548152906001019060200180831161175d57829003601f168201915b50505050509050600061178b611b80565b90506000815114156117a15781925050506117e4565b6000825111156117d65780826040516020016117be929190612eaf565b604051602081830303815290604052925050506117e4565b6117df84611b97565b925050505b919050565b60007f80ac58cd000000000000000000000000000000000000000000000000000000007bffffffffffffffffffffffffffffffffffffffffffffffffffffffff1916827bffffffffffffffffffffffffffffffffffffffffffffffffffffffff191614806118b457507f5b5e139f000000000000000000000000000000000000000000000000000000007bffffffffffffffffffffffffffffffffffffffffffffffffffffffff1916827bffffffffffffffffffffffffffffffffffffffffffffffffffffffff1916145b806118c457506118c382611c3e565b5b9050919050565b6118d6838383611ca8565b505050565b505050565b6118e981611dbc565b6000600a600083815260200190815260200160002080546119099061346d565b90501461193057600a6000828152602001908152602001600020600061192f919061265b565b5b50565b600081600001549050919050565b6001816000016000828254019250508190555050565b611971828260405180602001604052806000815250611ed9565b5050565b61197e82610f54565b6119bd576040517f08c379a00000000000000000000000000000000000000000000000000000000081526004016119b4906130d7565b60405180910390fd5b80600a600084815260200190815260200160002090805190602001906119e492919061269b565b505050565b6000611a0a8473ffffffffffffffffffffffffffffffffffffffff16611f34565b15611b73578373ffffffffffffffffffffffffffffffffffffffff1663150b7a02611a33610fc0565b8786866040518563ffffffff1660e01b8152600401611a559493929190612eee565b602060405180830381600087803b158015611a6f57600080fd5b505af1925050508015611aa057506040513d601f19601f82011682018060405250810190611a9d9190612aae565b60015b611b23573d8060008114611ad0576040519150601f19603f3d011682016040523d82523d6000602084013e611ad5565b606091505b50600081511415611b1b576040517f08c379a0000000000000000000000000000000000000000000000000000000008152600401611b1290612f97565b60405180910390fd5b805181602001fd5b63150b7a0260e01b7bffffffffffffffffffffffffffffffffffffffffffffffffffffffff1916817bffffffffffffffffffffffffffffffffffffffffffffffffffffffff191614915050611b78565b600190505b949350505050565b606060405180602001604052806000815250905090565b6060611ba282610f54565b611be1576040517f08c379a0000000000000000000000000000000000000000000000000000000008152600401611bd890613177565b60405180910390fd5b6000611beb611b80565b90506000815111611c0b5760405180602001604052806000815250611c36565b80611c1584611f57565b604051602001611c26929190612eaf565b6040516020818303038152906040525b915050919050565b60007f01ffc9a7000000000000000000000000000000000000000000000000000000007bffffffffffffffffffffffffffffffffffffffffffffffffffffffff1916827bffffffffffffffffffffffffffffffffffffffffffffffffffffffff1916149050919050565b611cb3838383612104565b600073ffffffffffffffffffffffffffffffffffffffff168373ffffffffffffffffffffffffffffffffffffffff161415611cf657611cf181612109565b611d35565b8173ffffffffffffffffffffffffffffffffffffffff168373ffffffffffffffffffffffffffffffffffffffff1614611d3457611d338382612152565b5b5b600073ffffffffffffffffffffffffffffffffffffffff168273ffffffffffffffffffffffffffffffffffffffff161415611d7857611d73816122bf565b611db7565b8273ffffffffffffffffffffffffffffffffffffffff168273ffffffffffffffffffffffffffffffffffffffff1614611db657611db58282612402565b5b5b505050565b6000611dc782610a16565b9050611dd5816000846118cb565b611de0600083610fc8565b6001600360008373ffffffffffffffffffffffffffffffffffffffff1673ffffffffffffffffffffffffffffffffffffffff1681526020019081526020016000206000828254611e309190613383565b925050819055506002600083815260200190815260200160002060006101000a81549073ffffffffffffffffffffffffffffffffffffffff021916905581600073ffffffffffffffffffffffffffffffffffffffff168273ffffffffffffffffffffffffffffffffffffffff167fddf252ad1be2c89b69c2b068fc378daa952ba7f163c4a11628f55a4df523b3ef60405160405180910390a4611ed5816000846118db565b5050565b611ee38383612481565b611ef060008484846119e9565b611f2f576040517f08c379a0000000000000000000000000000000000000000000000000000000008152600401611f2690612f97565b60405180910390fd5b505050565b6000808273ffffffffffffffffffffffffffffffffffffffff163b119050919050565b60606000821415611f9f576040518060400160405280600181526020017f300000000000000000000000000000000000000000000000000000000000000081525090506120ff565b600082905060005b60008214611fd1578080611fba906134d0565b915050600a82611fca9190613352565b9150611fa7565b60008167ffffffffffffffff811115612013577f4e487b7100000000000000000000000000000000000000000000000000000000600052604160045260246000fd5b6040519080825280601f01601f1916602001820160405280156120455781602001600182028036833780820191505090505b5090505b600085146120f85760018261205e9190613383565b9150600a8561206d9190613519565b603061207991906132fc565b60f81b8183815181106120b5577f4e487b7100000000000000000000000000000000000000000000000000000000600052603260045260246000fd5b60200101907effffffffffffffffffffffffffffffffffffffffffffffffffffffffffffff1916908160001a905350600a856120f19190613352565b9450612049565b8093505050505b919050565b505050565b6008805490506009600083815260200190815260200160002081905550600881908060018154018082558091505060019003906000526020600020016000909190919091505550565b6000600161215f84610ac8565b6121699190613383565b905060006007600084815260200190815260200160002054905081811461224e576000600660008673ffffffffffffffffffffffffffffffffffffffff1673ffffffffffffffffffffffffffffffffffffffff168152602001908152602001600020600084815260200190815260200160002054905080600660008773ffffffffffffffffffffffffffffffffffffffff1673ffffffffffffffffffffffffffffffffffffffff168152602001908152602001600020600084815260200190815260200160002081905550816007600083815260200190815260200160002081905550505b6007600084815260200190815260200160002060009055600660008573ffffffffffffffffffffffffffffffffffffffff1673ffffffffffffffffffffffffffffffffffffffff16815260200190815260200160002060008381526020019081526020016000206000905550505050565b600060016008805490506122d39190613383565b9050600060096000848152602001908152602001600020549050600060088381548110612329577f4e487b7100000000000000000000000000000000000000000000000000000000600052603260045260246000fd5b906000526020600020015490508060088381548110612371577f4e487b7100000000000000000000000000000000000000000000000000000000600052603260045260246000fd5b9060005260206000200181905550816009600083815260200190815260200160002081905550600960008581526020019081526020016000206000905560088054806123e6577f4e487b7100000000000000000000000000000000000000000000000000000000600052603160045260246000fd5b6001900381819060005260206000200160009055905550505050565b600061240d83610ac8565b905081600660008573ffffffffffffffffffffffffffffffffffffffff1673ffffffffffffffffffffffffffffffffffffffff168152602001908152602001600020600083815260200190815260200160002081905550806007600084815260200190815260200160002081905550505050565b600073ffffffffffffffffffffffffffffffffffffffff168273ffffffffffffffffffffffffffffffffffffffff1614156124f1576040517f08c379a00000000000000000000000000000000000000000000000000000000081526004016124e8906130f7565b60405180910390fd5b6124fa81610f54565b1561253a576040517f08c379a000000000000000000000000000000000000000000000000000000000815260040161253190612ff7565b60405180910390fd5b612546600083836118cb565b6001600360008473ffffffffffffffffffffffffffffffffffffffff1673ffffffffffffffffffffffffffffffffffffffff168152602001908152602001600020600082825461259691906132fc565b92505081905550816002600083815260200190815260200160002060006101000a81548173ffffffffffffffffffffffffffffffffffffffff021916908373ffffffffffffffffffffffffffffffffffffffff160217905550808273ffffffffffffffffffffffffffffffffffffffff16600073ffffffffffffffffffffffffffffffffffffffff167fddf252ad1be2c89b69c2b068fc378daa952ba7f163c4a11628f55a4df523b3ef60405160405180910390a4612657600083836118db565b5050565b5080546126679061346d565b6000825580601f106126795750612698565b601f0160209004906000526020600020908101906126979190612721565b5b50565b8280546126a79061346d565b90600052602060002090601f0160209004810192826126c95760008555612710565b82601f106126e257805160ff1916838001178555612710565b82800160010185558215612710579182015b8281111561270f5782518255916020019190600101906126f4565b5b50905061271d9190612721565b5090565b5b8082111561273a576000816000905550600101612722565b5090565b600061275161274c84613257565b613232565b90508281526020810184848401111561276957600080fd5b61277484828561342b565b509392505050565b600061278f61278a84613288565b613232565b9050828152602081018484840111156127a757600080fd5b6127b284828561342b565b509392505050565b6000813590506127c981613bfa565b92915050565b6000813590506127de81613c11565b92915050565b6000813590506127f381613c28565b92915050565b60008151905061280881613c28565b92915050565b600082601f83011261281f57600080fd5b813561282f84826020860161273e565b91505092915050565b600082601f83011261284957600080fd5b813561285984826020860161277c565b91505092915050565b60008135905061287181613c3f565b92915050565b60006020828403121561288957600080fd5b6000612897848285016127ba565b91505092915050565b600080604083850312156128b357600080fd5b60006128c1858286016127ba565b92505060206128d2858286016127ba565b9150509250929050565b6000806000606084860312156128f157600080fd5b60006128ff868287016127ba565b9350506020612910868287016127ba565b925050604061292186828701612862565b9150509250925092565b6000806000806080858703121561294157600080fd5b600061294f878288016127ba565b9450506020612960878288016127ba565b935050604061297187828801612862565b925050606085013567ffffffffffffffff81111561298e57600080fd5b61299a8782880161280e565b91505092959194509250565b600080604083850312156129b957600080fd5b60006129c7858286016127ba565b92505060206129d8858286016127cf565b9150509250929050565b6000806000606084860312156129f757600080fd5b6000612a05868287016127ba565b935050602084013567ffffffffffffffff811115612a2257600080fd5b612a2e86828701612838565b9250506040612a3f86828701612862565b9150509250925092565b60008060408385031215612a5c57600080fd5b6000612a6a858286016127ba565b9250506020612a7b85828601612862565b9150509250929050565b600060208284031215612a9757600080fd5b6000612aa5848285016127e4565b91505092915050565b600060208284031215612ac057600080fd5b6000612ace848285016127f9565b91505092915050565b600060208284031215612ae957600080fd5b6000612af784828501612862565b91505092915050565b612b09816133b7565b82525050565b612b18816133c9565b82525050565b6000612b29826132b9565b612b3381856132cf565b9350612b4381856020860161343a565b612b4c81613606565b840191505092915050565b6000612b62826132c4565b612b6c81856132e0565b9350612b7c81856020860161343a565b612b8581613606565b840191505092915050565b6000612b9b826132c4565b612ba581856132f1565b9350612bb581856020860161343a565b80840191505092915050565b6000612bce602b836132e0565b9150612bd982613617565b604082019050919050565b6000612bf16032836132e0565b9150612bfc82613666565b604082019050919050565b6000612c146026836132e0565b9150612c1f826136b5565b604082019050919050565b6000612c376025836132e0565b9150612c4282613704565b604082019050919050565b6000612c5a601c836132e0565b9150612c6582613753565b602082019050919050565b6000612c7d6024836132e0565b9150612c888261377c565b604082019050919050565b6000612ca06019836132e0565b9150612cab826137cb565b602082019050919050565b6000612cc3602c836132e0565b9150612cce826137f4565b604082019050919050565b6000612ce66038836132e0565b9150612cf182613843565b604082019050919050565b6000612d09602a836132e0565b9150612d1482613892565b604082019050919050565b6000612d2c6029836132e0565b9150612d37826138e1565b604082019050919050565b6000612d4f602e836132e0565b9150612d5a82613930565b604082019050919050565b6000612d726020836132e0565b9150612d7d8261397f565b602082019050919050565b6000612d956031836132e0565b9150612da0826139a8565b604082019050919050565b6000612db8602c836132e0565b9150612dc3826139f7565b604082019050919050565b6000612ddb6020836132e0565b9150612de682613a46565b602082019050919050565b6000612dfe602f836132e0565b9150612e0982613a6f565b604082019050919050565b6000612e216021836132e0565b9150612e2c82613abe565b604082019050919050565b6000612e446031836132e0565b9150612e4f82613b0d565b604082019050919050565b6000612e67602c836132e0565b9150612e7282613b5c565b604082019050919050565b6000612e8a6021836132e0565b9150612e9582613bab565b604082019050919050565b612ea981613421565b82525050565b6000612ebb8285612b90565b9150612ec78284612b90565b91508190509392505050565b6000602082019050612ee86000830184612b00565b92915050565b6000608082019050612f036000830187612b00565b612f106020830186612b00565b612f1d6040830185612ea0565b8181036060830152612f2f8184612b1e565b905095945050505050565b6000602082019050612f4f6000830184612b0f565b92915050565b60006020820190508181036000830152612f6f8184612b57565b905092915050565b60006020820190508181036000830152612f9081612bc1565b9050919050565b60006020820190508181036000830152612fb081612be4565b9050919050565b60006020820190508181036000830152612fd081612c07565b9050919050565b60006020820190508181036000830152612ff081612c2a565b9050919050565b6000602082019050818103600083015261301081612c4d565b9050919050565b6000602082019050818103600083015261303081612c70565b9050919050565b6000602082019050818103600083015261305081612c93565b9050919050565b6000602082019050818103600083015261307081612cb6565b9050919050565b6000602082019050818103600083015261309081612cd9565b9050919050565b600060208201905081810360008301526130b081612cfc565b9050919050565b600060208201905081810360008301526130d081612d1f565b9050919050565b600060208201905081810360008301526130f081612d42565b9050919050565b6000602082019050818103600083015261311081612d65565b9050919050565b6000602082019050818103600083015261313081612d88565b9050919050565b6000602082019050818103600083015261315081612dab565b9050919050565b6000602082019050818103600083015261317081612dce565b9050919050565b6000602082019050818103600083015261319081612df1565b9050919050565b600060208201905081810360008301526131b081612e14565b9050919050565b600060208201905081810360008301526131d081612e37565b9050919050565b600060208201905081810360008301526131f081612e5a565b9050919050565b6000602082019050818103600083015261321081612e7d565b9050919050565b600060208201905061322c6000830184612ea0565b92915050565b600061323c61324d565b9050613248828261349f565b919050565b6000604051905090565b600067ffffffffffffffff821115613272576132716135d7565b5b61327b82613606565b9050602081019050919050565b600067ffffffffffffffff8211156132a3576132a26135d7565b5b6132ac82613606565b9050602081019050919050565b600081519050919050565b600081519050919050565b600082825260208201905092915050565b600082825260208201905092915050565b600081905092915050565b600061330782613421565b915061331283613421565b9250827fffffffffffffffffffffffffffffffffffffffffffffffffffffffffffffffff038211156133475761334661354a565b5b828201905092915050565b600061335d82613421565b915061336883613421565b92508261337857613377613579565b5b828204905092915050565b600061338e82613421565b915061339983613421565b9250828210156133ac576133ab61354a565b5b828203905092915050565b60006133c282613401565b9050919050565b60008115159050919050565b60007fffffffff0000000000000000000000000000000000000000000000000000000082169050919050565b600073ffffffffffffffffffffffffffffffffffffffff82169050919050565b6000819050919050565b82818337600083830152505050565b60005b8381101561345857808201518184015260208101905061343d565b83811115613467576000848401525b50505050565b6000600282049050600182168061348557607f821691505b60208210811415613499576134986135a8565b5b50919050565b6134a882613606565b810181811067ffffffffffffffff821117156134c7576134c66135d7565b5b80604052505050565b60006134db82613421565b91507fffffffffffffffffffffffffffffffffffffffffffffffffffffffffffffffff82141561350e5761350d61354a565b5b600182019050919050565b600061352482613421565b915061352f83613421565b92508261353f5761353e613579565b5b828206905092915050565b7f4e487b7100000000000000000000000000000000000000000000000000000000600052601160045260246000fd5b7f4e487b7100000000000000000000000000000000000000000000000000000000600052601260045260246000fd5b7f4e487b7100000000000000000000000000000000000000000000000000000000600052602260045260246000fd5b7f4e487b7100000000000000000000000000000000000000000000000000000000600052604160045260246000fd5b6000601f19601f8301169050919050565b7f455243373231456e756d657261626c653a206f776e657220696e646578206f7560008201527f74206f6620626f756e6473000000000000000000000000000000000000000000602082015250565b7f4552433732313a207472616e7366657220746f206e6f6e20455243373231526560008201527f63656976657220696d706c656d656e7465720000000000000000000000000000602082015250565b7f4f776e61626c653a206e6577206f776e657220697320746865207a65726f206160008201527f6464726573730000000000000000000000000000000000000000000000000000602082015250565b7f4552433732313a207472616e736665722066726f6d20696e636f72726563742060008201527f6f776e6572000000000000000000000000000000000000000000000000000000602082015250565b7f4552433732313a20746f6b656e20616c7265616479206d696e74656400000000600082015250565b7f4552433732313a207472616e7366657220746f20746865207a65726f2061646460008201527f7265737300000000000000000000000000000000000000000000000000000000602082015250565b7f4552433732313a20617070726f766520746f2063616c6c657200000000000000600082015250565b7f4552433732313a206f70657261746f7220717565727920666f72206e6f6e657860008201527f697374656e7420746f6b656e0000000000000000000000000000000000000000602082015250565b7f4552433732313a20617070726f76652063616c6c6572206973206e6f74206f7760008201527f6e6572206e6f7220617070726f76656420666f7220616c6c0000000000000000602082015250565b7f4552433732313a2062616c616e636520717565727920666f7220746865207a6560008201527f726f206164647265737300000000000000000000000000000000000000000000602082015250565b7f4552433732313a206f776e657220717565727920666f72206e6f6e657869737460008201527f656e7420746f6b656e0000000000000000000000000000000000000000000000602082015250565b7f45524337323155524953746f726167653a2055524920736574206f66206e6f6e60008201527f6578697374656e7420746f6b656e000000000000000000000000000000000000602082015250565b7f4552433732313a206d696e7420746f20746865207a65726f2061646472657373600082015250565b7f45524337323155524953746f726167653a2055524920717565727920666f722060008201527f6e6f6e6578697374656e7420746f6b656e000000000000000000000000000000602082015250565b7f4552433732313a20617070726f76656420717565727920666f72206e6f6e657860008201527f697374656e7420746f6b656e0000000000000000000000000000000000000000602082015250565b7f4f776e61626c653a2063616c6c6572206973206e6f7420746865206f776e6572600082015250565b7f4552433732314d657461646174613a2055524920717565727920666f72206e6f60008201527f6e6578697374656e7420746f6b656e0000000000000000000000000000000000602082015250565b7f4552433732313a20617070726f76616c20746f2063757272656e74206f776e6560008201527f7200000000000000000000000000000000000000000000000000000000000000602082015250565b7f4552433732313a207472616e736665722063616c6c6572206973206e6f74206f60008201527f776e6572206e6f7220617070726f766564000000000000000000000000000000602082015250565b7f455243373231456e756d657261626c653a20676c6f62616c20696e646578206f60008201527f7574206f6620626f756e64730000000000000000000000000000000000000000602082015250565b7f4e6f7420656e6f756768204554482073656e743b20636865636b20707269636560008201527f2100000000000000000000000000000000000000000000000000000000000000602082015250565b613c03816133b7565b8114613c0e57600080fd5b50565b613c1a816133c9565b8114613c2557600080fd5b50565b613c31816133d5565b8114613c3c57600080fd5b50565b613c4881613421565b8114613c5357600080fd5b5056fea264697066735822122005448fa85647dc1360fcbf5b5f04b1065bac16313c7ae5efc4eb5722c3a4412164736f6c63430008040033",
  "linkReferences": {},
  "deployedLinkReferences": {}
}