{
  "_format": "hh-sol-artifact-1",
  "contractName": "Parties",
  "sourceName": "contracts/party.sol",
  "abi": [
    {
      "inputs": [],
      "stateMutability": "nonpayable",
      "type": "constructor"
    },
    {
      "inputs": [
        {
          "internalType": "uint256",
          "name": "txnno",
          "type": "uint256"
        },
        {
          "internalType": "address",
          "name": "party2",
          "type": "address"
        },
        {
          "internalType": "uint256",
          "name": "baggageWeight",
          "type": "uint256"
        }
      ],
      "name": "addParty",
      "outputs": [],
      "stateMutability": "payable",
      "type": "function"
    },
    {
      "inputs": [],
      "name": "getContractBalance",
      "outputs": [
        {
          "internalType": "uint256",
          "name": "",
          "type": "uint256"
        }
      ],
      "stateMutability": "view",
      "type": "function"
    },
    {
      "inputs": [
        {
          "internalType": "uint256",
          "name": "txnno",
          "type": "uint256"
        }
      ],
      "name": "getParty",
      "outputs": [
        {
          "internalType": "address",
          "name": "",
          "type": "address"
        },
        {
          "internalType": "address",
          "name": "",
          "type": "address"
        },
        {
          "internalType": "uint256",
          "name": "",
          "type": "uint256"
        },
        {
          "internalType": "string",
          "name": "",
          "type": "string"
        },
        {
          "internalType": "uint256",
          "name": "",
          "type": "uint256"
        }
      ],
      "stateMutability": "view",
      "type": "function"
    },
    {
      "inputs": [],
      "name": "owner",
      "outputs": [
        {
          "internalType": "address payable",
          "name": "",
          "type": "address"
        }
      ],
      "stateMutability": "view",
      "type": "function"
    },
    {
      "inputs": [
        {
          "internalType": "address payable",
          "name": "to",
          "type": "address"
        },
        {
          "internalType": "uint256",
          "name": "amount",
          "type": "uint256"
        }
      ],
      "name": "transfer",
      "outputs": [],
      "stateMutability": "nonpayable",
      "type": "function"
    },
    {
      "inputs": [
        {
          "internalType": "uint256",
          "name": "txnno",
          "type": "uint256"
        },
        {
          "internalType": "string",
          "name": "status",
          "type": "string"
        }
      ],
      "name": "updatePartyStatus",
      "outputs": [],
      "stateMutability": "nonpayable",
      "type": "function"
    },
    {
      "inputs": [
        {
          "internalType": "uint256",
          "name": "amount",
          "type": "uint256"
        }
      ],
      "name": "withdraw",
      "outputs": [],
      "stateMutability": "nonpayable",
      "type": "function"
    }
  ],
  "bytecode": "0x608060405234801561001057600080fd5b5033600160006101000a81548173ffffffffffffffffffffffffffffffffffffffff021916908373ffffffffffffffffffffffffffffffffffffffff160217905550611225806100616000396000f3fe6080604052600436106100705760003560e01c80638da5cb5b1161004e5780638da5cb5b146100e557806391bc3f78146101105780639475821814610139578063a9059cbb1461017a57610070565b80632e1a7d4d146100755780636f9fb98a1461009e578063842f25e2146100c9575b600080fd5b34801561008157600080fd5b5061009c60048036038101906100979190610b6a565b6101a3565b005b3480156100aa57600080fd5b506100b3610269565b6040516100c09190610e17565b60405180910390f35b6100e360048036038101906100de9190610b93565b6102cb565b005b3480156100f157600080fd5b506100fa610482565b6040516101079190610da2565b60405180910390f35b34801561011c57600080fd5b5061013760048036038101906101329190610be2565b6104a8565b005b34801561014557600080fd5b50610160600480360381019061015b9190610b6a565b6106d5565b604051610171959493929190610dbd565b60405180910390f35b34801561018657600080fd5b506101a1600480360381019061019c9190610b2e565b61093f565b005b600160009054906101000a900473ffffffffffffffffffffffffffffffffffffffff1673ffffffffffffffffffffffffffffffffffffffff163373ffffffffffffffffffffffffffffffffffffffff16146101fd57600080fd5b600160009054906101000a900473ffffffffffffffffffffffffffffffffffffffff1673ffffffffffffffffffffffffffffffffffffffff166108fc829081150290604051600060405180830381858888f19350505050158015610265573d6000803e3d6000fd5b5050565b6000600160009054906101000a900473ffffffffffffffffffffffffffffffffffffffff1673ffffffffffffffffffffffffffffffffffffffff163373ffffffffffffffffffffffffffffffffffffffff16146102c557600080fd5b47905090565b6000647dba821800826102de9190610ef5565b90508034146102ec57600080fd5b600033905060006040518060c001604052808781526020018373ffffffffffffffffffffffffffffffffffffffff1681526020018673ffffffffffffffffffffffffffffffffffffffff1681526020018581526020016040518060400160405280600781526020017f50656e64696e6700000000000000000000000000000000000000000000000000815250815260200184815250905060008190806001815401808255809150506001900390600052602060002090600602016000909190919091506000820151816000015560208201518160010160006101000a81548173ffffffffffffffffffffffffffffffffffffffff021916908373ffffffffffffffffffffffffffffffffffffffff16021790555060408201518160020160006101000a81548173ffffffffffffffffffffffffffffffffffffffff021916908373ffffffffffffffffffffffffffffffffffffffff16021790555060608201518160030155608082015181600401908051906020019061046d9291906109e4565b5060a082015181600501555050505050505050565b600160009054906101000a900473ffffffffffffffffffffffffffffffffffffffff1681565b600160009054906101000a900473ffffffffffffffffffffffffffffffffffffffff1673ffffffffffffffffffffffffffffffffffffffff163373ffffffffffffffffffffffffffffffffffffffff161461050257600080fd5b60005b6000805490508110156106d057600080828154811061054d577f4e487b7100000000000000000000000000000000000000000000000000000000600052603260045260246000fd5b90600052602060002090600602019050838160000154141561058357828160040190805190602001906105819291906109e4565b505b60405160200161059290610d8d565b60405160208183030381529060405280519060200120816004016040516020016105bc9190610d61565b60405160208183030381529060405280519060200120141561062d5760006005600483600501546105ed9190610ef5565b6105f79190610ec4565b90506106278260020160009054906101000a900473ffffffffffffffffffffffffffffffffffffffff168261093f565b506106bc565b60405160200161063c90610d78565b60405160208183030381529060405280519060200120816004016040516020016106669190610d61565b6040516020818303038152906040528051906020012014156106bb576000816005015490506106b98260010160009054906101000a900473ffffffffffffffffffffffffffffffffffffffff168261093f565b505b5b5080806106c890611042565b915050610505565b505050565b60008060006060600080600090505b6000805490508110156108ed57600080828154811061072c577f4e487b7100000000000000000000000000000000000000000000000000000000600052603260045260246000fd5b90600052602060002090600602016040518060c0016040529081600082015481526020016001820160009054906101000a900473ffffffffffffffffffffffffffffffffffffffff1673ffffffffffffffffffffffffffffffffffffffff1673ffffffffffffffffffffffffffffffffffffffff1681526020016002820160009054906101000a900473ffffffffffffffffffffffffffffffffffffffff1673ffffffffffffffffffffffffffffffffffffffff1673ffffffffffffffffffffffffffffffffffffffff1681526020016003820154815260200160048201805461081590610fdf565b80601f016020809104026020016040519081016040528092919081815260200182805461084190610fdf565b801561088e5780601f106108635761010080835404028352916020019161088e565b820191906000526020600020905b81548152906001019060200180831161087157829003601f168201915b50505050508152602001600582015481525050905087816000015114156108d95780602001518160400151826060015183608001518460a00151965096509650965096505050610936565b5080806108e590611042565b9150506106e4565b6000806000806040518060400160405280600981526020017f4e6f7420666f756e6400000000000000000000000000000000000000000000008152509095509550955095509550505b91939590929450565b600160009054906101000a900473ffffffffffffffffffffffffffffffffffffffff1673ffffffffffffffffffffffffffffffffffffffff163373ffffffffffffffffffffffffffffffffffffffff161461099957600080fd5b8173ffffffffffffffffffffffffffffffffffffffff166108fc829081150290604051600060405180830381858888f193505050501580156109df573d6000803e3d6000fd5b505050565b8280546109f090610fdf565b90600052602060002090601f016020900481019282610a125760008555610a59565b82601f10610a2b57805160ff1916838001178555610a59565b82800160010185558215610a59579182015b82811115610a58578251825591602001919060010190610a3d565b5b509050610a669190610a6a565b5090565b5b80821115610a83576000816000905550600101610a6b565b5090565b6000610a9a610a9584610e57565b610e32565b905082815260208101848484011115610ab257600080fd5b610abd848285610f9d565b509392505050565b600081359050610ad4816111aa565b92915050565b600081359050610ae9816111c1565b92915050565b600082601f830112610b0057600080fd5b8135610b10848260208601610a87565b91505092915050565b600081359050610b28816111d8565b92915050565b60008060408385031215610b4157600080fd5b6000610b4f85828601610ada565b9250506020610b6085828601610b19565b9150509250929050565b600060208284031215610b7c57600080fd5b6000610b8a84828501610b19565b91505092915050565b600080600060608486031215610ba857600080fd5b6000610bb686828701610b19565b9350506020610bc786828701610ac5565b9250506040610bd886828701610b19565b9150509250925092565b60008060408385031215610bf557600080fd5b6000610c0385828601610b19565b925050602083013567ffffffffffffffff811115610c2057600080fd5b610c2c85828601610aef565b9150509250929050565b610c3f81610f61565b82525050565b610c4e81610f4f565b82525050565b6000610c5f82610e9d565b610c698185610ea8565b9350610c79818560208601610fac565b610c8281611147565b840191505092915050565b60008154610c9a81610fdf565b610ca48186610eb9565b94506001821660008114610cbf5760018114610cd057610d03565b60ff19831686528186019350610d03565b610cd985610e88565b60005b83811015610cfb57815481890152600182019150602081019050610cdc565b838801955050505b50505092915050565b6000610d19600683610eb9565b9150610d2482611158565b600682019050919050565b6000610d3c600783610eb9565b9150610d4782611181565b600782019050919050565b610d5b81610f93565b82525050565b6000610d6d8284610c8d565b915081905092915050565b6000610d8382610d0c565b9150819050919050565b6000610d9882610d2f565b9150819050919050565b6000602082019050610db76000830184610c36565b92915050565b600060a082019050610dd26000830188610c45565b610ddf6020830187610c45565b610dec6040830186610d52565b8181036060830152610dfe8185610c54565b9050610e0d6080830184610d52565b9695505050505050565b6000602082019050610e2c6000830184610d52565b92915050565b6000610e3c610e4d565b9050610e488282611011565b919050565b6000604051905090565b600067ffffffffffffffff821115610e7257610e71611118565b5b610e7b82611147565b9050602081019050919050565b60008190508160005260206000209050919050565b600081519050919050565b600082825260208201905092915050565b600081905092915050565b6000610ecf82610f93565b9150610eda83610f93565b925082610eea57610ee96110ba565b5b828204905092915050565b6000610f0082610f93565b9150610f0b83610f93565b9250817fffffffffffffffffffffffffffffffffffffffffffffffffffffffffffffffff0483118215151615610f4457610f4361108b565b5b828202905092915050565b6000610f5a82610f73565b9050919050565b6000610f6c82610f73565b9050919050565b600073ffffffffffffffffffffffffffffffffffffffff82169050919050565b6000819050919050565b82818337600083830152505050565b60005b83811015610fca578082015181840152602081019050610faf565b83811115610fd9576000848401525b50505050565b60006002820490506001821680610ff757607f821691505b6020821081141561100b5761100a6110e9565b5b50919050565b61101a82611147565b810181811067ffffffffffffffff8211171561103957611038611118565b5b80604052505050565b600061104d82610f93565b91507fffffffffffffffffffffffffffffffffffffffffffffffffffffffffffffffff8214156110805761107f61108b565b5b600182019050919050565b7f4e487b7100000000000000000000000000000000000000000000000000000000600052601160045260246000fd5b7f4e487b7100000000000000000000000000000000000000000000000000000000600052601260045260246000fd5b7f4e487b7100000000000000000000000000000000000000000000000000000000600052602260045260246000fd5b7f4e487b7100000000000000000000000000000000000000000000000000000000600052604160045260246000fd5b6000601f19601f8301169050919050565b7f4661696c65640000000000000000000000000000000000000000000000000000600082015250565b7f5375636365737300000000000000000000000000000000000000000000000000600082015250565b6111b381610f4f565b81146111be57600080fd5b50565b6111ca81610f61565b81146111d557600080fd5b50565b6111e181610f93565b81146111ec57600080fd5b5056fea2646970667358221220a5188caa84f0e766be377c21bb5cc71fbf6a196b6845025b34daeaf47d9f8fa064736f6c63430008030033",
  "linkReferences": {},
  "deployedLinkReferences": {}
}